:020000040000FA
:100000008A1500208A110C28F0000308F1000A0864
:06001000F2008A153F28F2
:08001800003083120317A00061
:10002000A200A4000130A100200852237D08831201
:100030000317A300831203172308F3007D0873023C
:10004000031D23281A2883120317A30A2308063E38
:10005000031C2C28FA30A3027D08063E031C7C28D2
:10006000FA30FD02831203132D08063E031C3B28C1
:10007000A70AFA30AD02831203132E08063E031CB2
:1000800046280317A40AFA300313AE02831203179B
:100090002408031952280313270803195228A70319
:1000A0000317A40383120313A70A2708FC3E031CAB
:1000B0007C280430A702A60A3D08013EBD002608A0
:1000C000C43E031C66283C30A602A80A8312031310
:1000D0002F08FF3E031D6E282608522383120313A8
:1000E0002F08FD3E031D7528E420831203133608F4
:1000F00003197C280830F906831203132808C43E2C
:10010000031C85283C30A802A90A8312031329087E
:10011000E83E031C8F281830A902AA0A792483120A
:1001200003133D08C43E031C9B283D08C43EBD008C
:100130003C08013EBC00831203133C08C43E031C70
:10014000A7283C08C43EBC003B08013EBB0083120C
:1001500003133B08E83E031CB3283B08E83EBB0002
:100160003A08013EBA00E02183120317220803195E
:10017000BB28A203E2287E080319C228C8308312D4
:100180000317A2007E0820390319D72800308312F4
:100190000313B4002F08FD3E0319D1280330AF002C
:1001A000D728831203133508FF3E1F39B5007E0898
:1001B00080390319E228831203132F08013E033903
:1001C000AF00B4011A280800003083120313B600F0
:1001D000031728080319EE28A80108008312031347
:1001E0003408003E031D2D29003083120317A70099
:1001F000831203172708E03E031822290130A600C6
:10020000031335080317A500831203172508A50358
:10021000003803190E290730A60704298312031793
:100220002608043E103EF6277508013E03191929D9
:10023000222983120313B5031F30B5058312031758
:10024000A70AF82883120313350852237830840054
:100250000E30F62775088000D629FF3E031D43297E
:10026000783084000A30F6277508800077308400E3
:100270000630F62775088000763084000E30F627A9
:1002800075088000D629FF3E031D572983120317E6
:100290002608103EF627831203132A08F300750878
:1002A00073025223013083120317A800D629FF3EA0
:1002B000031D662978308400383080007730840050
:1002C0005C308000763084008001D629FE3E031D1C
:1002D00075297830840076308000773084001030C3
:1002E0008000763084008001D629FE3E031D8929D6
:1002F000783084005E308000773084000A30F62742
:1003000075088000763084000430F6277508800078
:10031000D629FE3E031D9B2978308400763080006C
:100320007730840050308000763084000530F62726
:1003300075088000D629FE3E031DAB297830840065
:1003400037308000773084001030800076308400B1
:1003500054308000D629FE3E031DD5297830840014
:100360000530F62775088000773084000E30F627B8
:10037000750880007630840058308000D6298312BA
:1003800003133408FE3EF30001300038EA277308F7
:100390000317A50026082507103EF62775085223E7
:1003A000013083120317A800D629BF298312031333
:1003B000B40A3408F13E031CDF290130B400080000
:1003C00083120317AA032A084F3E031DEE291823A0
:1003D000831203132B08C3002C08C40083120317D5
:1003E0002A08653E031DFB291823831203132B08DB
:1003F000C1002C08C200831203172A088B3E031D7C
:10040000082A1823831203132B08BF002C08C000EE
:10041000831203172A089C3E0319262A2A08AD3E98
:100420000319262A2A08BD3E0319262A2A08CE3E89
:100430000319262A2A08DF3E0319262A2A08EF3E36
:100440000319262A2A08FF3E031D382A182383127F
:1004500003133F08A0004008A1002B08A2002C08AD
:10046000A3006123831203132008BF002108C000EA
:10047000831203172A08FF3E031D502A03307523F9
:10048000831203132008BF002108C0002F08FE3E7E
:10049000031D4B2A9A23E12200380319502A942283
:1004A000831203172A08031D932AA901F9010313D4
:1004B0004408A1004308A0000030A3001E30A200A1
:1004C0006123831203134208A3004108A20086237C
:1004D00000380319722A83120317A90A0313AE0AFC
:1004E0001030F900831203134208A1004108A00054
:1004F0000030A3001E30A2006123831203134408BE
:10050000A3004408A2008623003803198E2A831210
:100510000317A9030313AD0A0430F900C83083128E
:1005200003172907AA00080083120317AC0A033037
:10053000AC052C084C3E84000313400880000317D0
:100540002C08483E840003133F0880005B230030E2
:1005500083120317AB00831203172B08FC3E03180A
:10056000C32A2B084C3E840000080313A300031782
:100570002B08483E840000080313A2006123831265
:100580000317AB0AAB2A503083120313A200A30156
:10059000862300380319CD2A5B23093032248312C5
:1005A000031320080317AB002C08031DDC2A0313D8
:1005B0002F08031DDC2A9A23831203172B087124AA
:1005C0000800831203134008031DEB2A3F08C43EB2
:1005D0000318EB2A0134831203134208A1004108D7
:1005E000A0000030A3000A30A2006123831203138D
:1005F0004008A3003F08A200862300380319012BFE
:100600000034831203134408A1004308A000003003
:10061000A3000A30A2006123831203134008A30041
:100620003F08A200862300380319172B0034013439
:100630000F244130831203139F00803083169F00E4
:10064000003083128500BE30831685000000000054
:1006500000000000000000000000BF3083160313FC
:1006600085004030831285008501000000000000F5
:10067000000000000000000000000230831203139D
:100680009F040D24831203131F0802390319492BF9
:10069000422B831203131E08AC0083161E0883121C
:1006A000AB00080083120317AD002D080313A00050
:1006B000A1019A230800003083120313A100A000B7
:1006C000080083120313A401A5012208A007031840
:1006D000A50A2508A1070318A40A2308A1070318DF
:1006E000A40A831203132408080083120317AE0020
:1006F000831203172E08AE0300380319852B8312CB
:1007000003130310A10CA00C782B08008312031311
:10071000A401A5012208A002031CA50A2508A10224
:10072000031CA40A2308A102031CA40A83120313B6
:10073000240808000030F90083120317AF000330CB
:100740000313A300E830A2008623031DAB2B831202
:100750000317AF0AA42B831203172F080319B22B18
:100760001C30F900831203172F08B00061230030FA
:1007700083120317AF0000300313A3006430A200FC
:100780008623031DC72B83120317AF0AC02B6123D7
:10079000831203172F08B0072F08031DD62B30082C
:1007A000031DD62B783084008001DF2B7830840045
:1007B000831203172F08003EF627750880000030CB
:1007C00083120317AF000A300313A2008623031D10
:1007D000ED2B83120317AF0AE62B61238312031755
:1007E0002F08031DFA2B3008031DFA2B77308400E5
:1007F0008001032C77308400831203172F08003EFA
:10080000F6277508800076308400831203132008D1
:10081000003EF6277508800008008B1708008B1330
:100820008B1B0F2C08005B23003083120313C700BF
:10083000831203134708F03E0318312C0310C60D32
:10084000C50DA00DA10D862300380319292C6123A5
:100850002D2C013083120313C60483120313C70A1D
:10086000182C080083120317B10003132008C600D8
:100870002108C5000030A3008312031731080313B9
:10088000A2001324831203134608A0004508A10008
:10089000080083120317B200003083120317B3005D
:1008A00032080313C7002108A3002008A2005B231D
:1008B00083120313470803196D2C470801390319E4
:1008C000652C612383120317B304831203130310EF
:1008D000C70C0310A20DA30D582C83120317330865
:1008E000080083120317B40034088A1581208A1186
:0A08F00008008A1576218A1108001D
:0C0FD400031908000310F30CFF3EEA2F85
:100FE000031908000310F30DFF3EF02F83120317BF
:0E0FF0008D0083160C1483120C08F500080007
:101000000030831603138600E33087000030031797
:1010100089000030FB00F9000430FA000030831230
:101020000313A700A600AF00A800A900AA00003083
:10103000AE00AD000030B000B200B1000030B6002C
:10104000B5000030F3007308FC3E03183128730824
:101050004C3E840080017308483E84008001F30AFE
:101060002328FC30831203138F0018308E000130C8
:101070009000013083168C00C0308B0008000030D7
:10108000831203139000FC308F0020308E07013054
:101090009000FD0A0408FF00E3308705FF30831647
:1010A00086007B08763E84000008FC0079087A05FB
:1010B00003195C288030FC047C08FF3A8312031378
:1010C00086000608A039A03AFE000030831686008C
:1010D0007A08831287000310FA0DFB0A7B08FD3E95
:1010E000031C7528FB010430FA007F08840083127A
:1010F00003130C1072088A0071088300F00E700E42
:10110000090083120317B50035080313BE00300829
:1011100003199E283E08F30039087302031D031CBF
:1011200093283E08B900831203133E08F3003808E1
:10113000730203189D283E08B800A62883120313E3
:101140003108031DA6283E08B900B8008312031316
:1011500030080319B028831203173508D52008007A
:101160008312031331080319BA28B1033108031D90
:10117000BA282221831203173508F82000380319F2
:10118000C2280800831203133108031DCE282A0841
:10119000B7000030BD00BC00BB00BA0001308312B4
:1011A0000313B000FF30B100080083120317B6002C
:1011B000831203173608F82083120317B700370885
:1011C000031DE628FF300313B100F7288312031331
:1011D0003708D2003808D3003908D4003A08D500BF
:1011E0003B08D6003C08D7003D08D800B0010800F5
:1011F00083120317B8003808863E031D031C01291B
:101200000034831203173808903E0318082900346D
:101210000134831203178D0075088C0083160317A1
:101220000C158B138B1B112955308D00AA308D00A6
:101230008C14000000008B170C11000000008C18AB
:101240001E290800831203135808031D312957086B
:10125000031D31295608031D31295508031D312965
:101260000800113083120313B30032080317B900CA
:10127000831203173908B9030038031943290730CB
:101280000313B3073829831203135208D1009E2198
:1012900083120313B30A5308D1009E218312031350
:1012A000B30A5408D1009E2183120313B30A5508D0
:1012B000D1009E2183120313B30A5608D1009E2148
:1012C00083120313B30A5708D1009E21831203131C
:1012D000B30A5808D1009E21831203133208B500C7
:1012E000B20A1F30B2050130B60008000130831287
:1012F0000313D00000300317BA00831203173A0813
:10130000E03E03189D2903135008103EF627750888
:10131000F300831203132A087302031D9529143066
:101320005007B300FF30D1009E2107308312031312
:10133000D00783120317BA0A7D290800831203130A
:101340003308003EF627831203135108F300750893
:1013500073020319AF295108F50033080921080069
:0C1FD400031908000310F30CFF3EEA2F75
:101FE000031908000310F30DFF3EF02F83120317AF
:0E1FF0008D0083160C1483120C08F5000800F7
:02400E00E428A4
:02401000FF3E71
:104200003F0006005B004F0066006D007D00070068
:104210007F006F0077007C0058005E00790071001D
:10422000FF00FF00FF00FF00FF00FF00FF00FF0096
:00000001FF
