:020000040000FA
:100000008A1500208A110C28F0000308F1000A0864
:06001000F2008A152D2804
:08001800003083120317A00061
:10002000A200A4000130A10020085D237D088312F6
:100030000317A300831203172308F3007D0873023C
:10004000031D23281A2883120317A30A2308063E38
:10005000031C2C28FA30A3027D08063E031C7C28D2
:10006000FA30FD02831203132D08063E031C3B28C1
:10007000A70AFA30AD02831203132E08063E031CB2
:1000800046280317A40AFA300313AE02831203179B
:100090002408031952280313270803195228A70319
:1000A0000317A40383120313A70A2708FC3E031CAB
:1000B0007C280430A702A60A3D08013EBD002608A0
:1000C000C43E031C66283C30A602A80A8312031310
:1000D0002F08FF3E031D6E2826085D23831203139D
:1000E0002F08FD3E031D7528E320831203133608F5
:1000F00003197C280830F906831203132808C43E2C
:10010000031C85283C30A802A90A8312031329087E
:10011000E83E031C8E281830A902AA0A8312031392
:100120003D08C43E031C9A283D08C43EBD003C085F
:10013000013EBC00831203133C08C43E031CA628E6
:100140003C08C43EBC003B08013EBB0083120313C5
:100150003B08E83E031CB2283B08E83EBB003A08D7
:10016000013EBA000C228312031722080319BA2891
:10017000A203E1287E080319C128C830831203179F
:10018000A2007E0820390319D628003083120313F9
:10019000B4002F08FD3E0319D0280330AF00D62845
:1001A000831203133508FF3E0F39B5007E088039EE
:1001B0000319E128831203132F08013E0339AF000E
:1001C000B4011A280800003083120313B600031785
:1001D00028080319ED28A801080083120313340826
:1001E000003E031D2C29003083120317A700831241
:1001F00003172708F03E031821290130A600031336
:1002000035080317A500831203172508A503003836
:1002100003190D290730A60703298312031726089F
:10022000043E103EF6277508013E031918292129BE
:1002300083120313B5030F30B50583120317A70A02
:10024000F7288312031335085D23783084000E30BD
:10025000F62775088000022AFF3E031D42297830E8
:1002600084000A30F6277508800077308400063055
:10027000F62775088000763084000E30F627750862
:100280008000022AFF3E031D562983120317260809
:10029000103EF627831203132A08F3007508730231
:1002A0005D23013083120317A800022AFF3E031DBD
:1002B00065297830840038308000773084005C30E5
:1002C0008000763084008001022AFE3E031D7429DE
:1002D00078308400763080007730840010308000E1
:1002E000763084008001022AFE3E031D8829783082
:1002F00084005E308000773084000A30F62775086D
:100300008000763084000430F62775088000022AC9
:10031000FE3E031D9A2978308400763080007730C5
:10032000840050308000763084000530F627750850
:100330008000022AFE3E031DAA297830840037304F
:100340008000773084001030800076308400543094
:100350008000022AFE3E031DBE297830840005304D
:10036000F62775088000773084000E30F627750870
:1003700080007630840058308000022AFF3E031D42
:10038000012A831203172608063E103EF627750839
:1003900083120317A5002608053E103EF6277508B0
:1003A0000319D7298312031725085D23E629831231
:1003B00003172508FD3EA5002508C53E031D031CA7
:1003C000E229A5018312031725085D23013083125A
:1003D0000317A800022A831203133408FE3EF30019
:1003E00001300038EA2773080317A50026082507FF
:1003F000103EF62775085D23013083120317A8000D
:10040000022AEB2983120313B40A3408F13E031CB9
:100410000B2A0130B400080083120317AA032A082C
:100420006D3E031D1A2A2623831603132008A600F7
:100430002108A700831203172A08B53E031D272AA7
:100440002623831603132008A4002108A500831285
:1004500003172A08FD3E031D392A2623831603139A
:100460002008A2002108A300E32200380319392A3A
:100470008A22831203172A08031D892AA901F90178
:100480008316031327088312A100831626088312FC
:10049000A0000030A3001E30A2006C2383160313BB
:1004A00025088312A300831624088312A200802348
:1004B00000380319622A83120317A90A0313AE0A2C
:1004C0001030F9008316031325088312A100831648
:1004D00024088312A0000030A3001E30A2006C2369
:1004E0008316031327088312A30083162708831299
:1004F000A200802300380319842A83120317A9035A
:100500000313AD0A0430F900C8308312031729071A
:10051000AA000800831203132C08A1002B08A000D6
:10052000831623088312A300831622088312A200D5
:100530006C2383120317AB0A2B08FC3E031CDC2A36
:1005400050300313A200A301802300380319A92A05
:100550006623093083120313A200A301003003179E
:10056000AB008023031DB82A83120317AB0AB12AFC
:10057000831203132F08031DC12A03172B085D23C1
:10058000D02A831203132F08FE3E031DD02A8316A0
:1005900023088312A100831622088312A00094234B
:1005A000831203172B08EF23003083120313AB00D1
:1005B000AC000317AB00E22A831203132108AC003E
:1005C0002008AB000800831603132308031DED2A3F
:1005D0002208C43E0318ED2A0134831603132508AC
:1005E0008312A100831624088312A0000030A30008
:1005F0000A30A2006C238316031323088312A3007E
:10060000831622088312A200802300380319092BC5
:1006100000348316031327088312A10083162608CB
:100620008312A0000030A3000A30A2006C238316BE
:10063000031323088312A300831622088312A20047
:10064000802300380319252B00340134EB2341307B
:10065000831203139F00803083169F0000308312A3
:100660008500BE30831685000000000000000000F9
:100670000000BF30831603138500403083128500CD
:1006800085010000000000000000000000000000E4
:1006900000000230831203139F04E9238312031323
:1006A0001F0802390319552B4E2B831203131E0802
:1006B0008316A1001E08A000080083120317AC00D7
:1006C0002C080313A000A10194230800003083121A
:1006D0000313A100A000080083120313A401A501C5
:1006E0002208A0070318A50A2508A1070318A40AD1
:1006F0002308A1070318A40A83120313240808007F
:1007000083120313A401A5012208A002031CA50A59
:100710002508A102031CA40A2308A102031CA40AA1
:1007200083120313240808000030F9008312031712
:10073000AD0003300313A300E830A2008023031DA3
:10074000A52B83120317AD0A9E2B831203172D08C6
:100750000319AC2B1C30F9006C23003083120317F3
:10076000AD0000300313A3006430A2008023031DFA
:10077000BD2B83120317AD0AB62B6C23783084008F
:10078000831203172D08003EF627750880000030FD
:1007900083120317AD000A300313A2008023031D48
:1007A000D52B83120317AD0ACE2B6C237730840030
:1007B000831203172D08003EF62775088000763057
:1007C0008400831203132008003EF627750880007A
:1007D00008008B1708008B138B1BEB2B0800831270
:0E07E0000317AE002E088A156B208A11080040
:0C0FD400031908000310F30CFF3EEA2F85
:100FE000031908000310F30DFF3EF02F83120317BF
:0E0FF0008D0083160C1483120C08F500080007
:101000000030831603138600E33087000030031797
:1010100089000030FB00F9000430FA000030831230
:101020000313A700A600AF00A800A900AA00003083
:10103000AE00AD000030B100B000B2000030B6002C
:10104000B500FC308F0018308E0001309000013068
:1010500083168C00C0308B0008000030831203130D
:101060009000FC308F0020308E0701309000FD0A88
:10107000E3308705FF30831686007B08763E8400C8
:101080000008FC0079087A05031948288030FC0420
:101090007C08FF3A8312031386000608A039A03AA1
:1010A000FE000030831686007A0883128700031042
:1010B000FA0DFB0A7B08FD3E031C6128FB0104308E
:1010C000FA00831203130C1072088A00710883005F
:1010D000F00E700E090083120317AF0003133008DF
:1010E00003197728831203172F089420080083120E
:1010F00003172F08D420003803197F280800831213
:101100000313B10A3108FE3E031C93282A08B700D6
:101110007530B900B8000030BD00BC00BB00BA009B
:101120000130B000B101080083120317B000831230
:1011300003173008D42083120317B1003108031DB0
:10114000C5283008F300031339087302031D031C7C
:10115000B0288312031730080313BE003E08B900FD
:10116000831203173008F3000313380873020318BF
:10117000C0288312031730080313BE003E08B800CE
:10118000003083120313B100D32883120313B10A72
:101190003108FB3E031D031CD328FE2000308312C0
:1011A0000313B000B101080083120317B200320824
:1011B000863E031D031CDD2800348312031732080A
:1011C000903E0318E42800340134831203178D0085
:1011D00075088C00831603170C158B138B1BED28D9
:1011E00055308D00AA308D008C14000000008B1744
:1011F0000C11000000008C18FA280800113083122E
:101200000313B30032080317B30083120317330824
:10121000B30300380319102907300313B307052956
:10122000831203133708F5003308E52083120313F4
:10123000B30A3808F5003308E52083120313B30A14
:101240003908F5003308E52083120313B30A3A087E
:10125000F5003308E52083120313B30A3B08F500B9
:101260003308E52083120313B30A3C08F500330862
:10127000E52083120313B30A3D08F5003308E52087
:10128000831203133208B500B20A0F30B2050130E1
:04129000B60008009C
:0C1FD400031908000310F30CFF3EEA2F75
:101FE000031908000310F30DFF3EF02F83120317AF
:0E1FF0008D0083160C1483120C08F5000800F7
:02400E00E428A4
:02401000FF3E71
:104200003F0006005B004F0066006D007D00070068
:104210007F006F0077007C0058005E00790071001D
:10422000FF00FF00FF00FF00FF00FF00FF00FF0096
:10423000FF00FF00FF00FF00FF00FF00FF00FF0086
:10424000FF00FF00FF00FF00FF00FF00FF00FF0076
:10425000FF00FF00FF00FF00FF00FF00FF00FF0066
:10426000FF00FF00FF00FF00FF00FF00FF00FF0056
:10427000FF00FF00FF00FF00FF00FF00FF00FF0046
:10428000FF00FF00FF00FF00FF00FF00FF00FF0036
:10429000FF00FF00FF00FF00FF00FF00FF00FF0026
:1042A000FF00FF00FF00FF00FF00FF00FF00FF0016
:1042B000FF00FF00FF00FF00FF00FF00FF00FF0006
:1042C000FF00FF00FF00FF00FF00FF00FF00FF00F6
:1042D000FF00FF00FF00FF00FF00FF00FF00FF00E6
:1042E000FF00FF00FF00FF00FF00FF00FF00FF00D6
:1042F000FF00FF00FF00FF00FF00FF00FF00FF00C6
:04430000FF000000BA
:00000001FF
