:020000040000FA
:100000008A1500208A110C28F0000308F1000A0864
:06001000F2008A152C2805
:08001800003083120317A00061
:10002000A200A4000130A10020085C237D088312F7
:100030000317A300831203172308F3007D0873023C
:10004000031D23281A2883120317A30A2308063E38
:10005000031C2C28FA30A3027D08063E031C7C28D2
:10006000FA30FD02831203132D08063E031C3B28C1
:10007000A70AFA30AD02831203132E08063E031CB2
:1000800046280317A40AFA300313AE02831203179B
:100090002408031952280313270803195228A70319
:1000A0000317A40383120313A70A2708FC3E031CAB
:1000B0007C280430A702A60A3D08013EBD002608A0
:1000C000C43E031C66283C30A602A80A8312031310
:1000D0002F08FF3E031D6E2826085C23831203139E
:1000E0002F08FD3E031D7528E320831203133608F5
:1000F00003197C280830F906831203132808C43E2C
:10010000031C85283C30A802A90A8312031329087E
:10011000E83E031C8E281830A902AA0A8312031392
:100120003D08C43E031C9A283D08C43EBD003C085F
:10013000013EBC00831203133C08C43E031CA628E6
:100140003C08C43EBC003B08013EBB0083120313C5
:100150003B08E83E031CB2283B08E83EBB003A08D7
:10016000013EBA00DF218312031722080319BA28BF
:10017000A203E1287E080319C128C830831203179F
:10018000A2007E0820390319D628003083120313F9
:10019000B4002F08FD3E0319D0280330AF00D62845
:1001A000831203133508FF3E1F39B5007E088039DE
:1001B0000319E128831203132F08013E0339AF000E
:1001C000B4011A280800003083120313B600031785
:1001D00028080319ED28A801080083120313340826
:1001E000003E031D2C29003083120317A700831241
:1001F00003172708E03E031821290130A600031346
:1002000035080317A500831203172508A503003836
:1002100003190D290730A60703298312031726089F
:10022000043E103EF6277508013E031918292129BE
:1002300083120313B5031F30B50583120317A70AF2
:10024000F7288312031335085C23783084000E30BE
:10025000F62775088000D529FF3E031D4229783016
:1002600084000A30F6277508800077308400063055
:10027000F62775088000763084000E30F627750862
:100280008000D529FF3E031D562983120317260837
:10029000103EF627831203132A08F3007508730231
:1002A0005C23013083120317A800D529FF3E031DEC
:1002B00065297830840038308000773084005C30E5
:1002C0008000763084008001D529FE3E031D74290C
:1002D00078308400763080007730840010308000E1
:1002E000763084008001D529FE3E031D88297830B0
:1002F00084005E308000773084000A30F62775086D
:100300008000763084000430F62775088000D529F7
:10031000FE3E031D9A2978308400763080007730C5
:10032000840050308000763084000530F627750850
:100330008000D529FE3E031DAA297830840037307D
:100340008000773084001030800076308400543094
:100350008000D529FE3E031DD42978308400053065
:10036000F62775088000773084000E30F627750870
:1003700080007630840058308000D5298312031322
:100380003408FE3EF30001300038EA2773080317F3
:10039000A50026082507103EF62775085C230130C6
:1003A00083120317A800D529BE2983120313B40AA8
:1003B0003408F13E031CDE290130B400080083122A
:1003C0000317AA032A084F3E031DED292223831297
:1003D00003132B08C3002C08C400831203172A0838
:1003E000653E031DFA292223831203132B08C10043
:1003F0002C08C200831203172A088B3E031D072A0C
:100400002223831203132B08BF002C08C000831281
:1004100003172A089C3E0319252A2A08AD3E031912
:10042000252A2A08BD3E0319252A2A08CE3E03198B
:10043000252A2A08DF3E0319252A2A08EF3E031938
:10044000252A2A08FF3E031D372A2223831203137D
:100450003F08A0004008A1002B08A2002C08A30020
:100460006B23831203132008BF002108C0008312EE
:1004700003172A08FF3E031D4F2A03307F238312F0
:1004800003132008BF002108C0002F08FE3E031DF3
:100490004A2AA423EB22003803194F2A93228312FD
:1004A00003172A08031D922AA901F901031344081E
:1004B000A1004308A0000030A3001E30A2006B235F
:1004C000831203134208A3004108A20090230038BE
:1004D0000319712A83120317A90A0313AE0A1030F5
:1004E000F900831203134208A1004108A000003064
:1004F000A3001E30A2006B23831203134408A30041
:100500004408A2009023003803198D2A8312031790
:10051000A9030313AD0A0430F900C830831203178E
:100520002907AA00080083120317AC0A0330AC05A0
:100530002C084C3E840003134008800003172C084D
:10054000483E840003133F08800065230030831277
:100550000317AB00831203172B08FC3E0318C22AB3
:100560002B084C3E840000080313A30003172B083C
:10057000483E840000080313A2006B238312031774
:10058000AB0AAA2A503083120313A200A3019023BE
:1005900000380319CC2A6523093083120313A20003
:1005A000A3012008C6002108C5001D2483120313DF
:1005B0004508A1004608A0000317AB002C08031D46
:1005C000E62A03132F08031DE62AA4238312031728
:1005D0002B083C240800831203134008031DF52A4E
:1005E0003F08C43E0318F52A01348312031342085E
:1005F000A1004108A0000030A3000A30A2006B2334
:10060000831203134008A3003F08A2009023003880
:1006100003190B2B0034831203134408A100430871
:10062000A0000030A3000A30A2006B238312031342
:100630004008A3003F08A200902300380319212B93
:100640000034013419244130831203139F00803099
:1006500083169F00003083128500BE30831685000C
:100660000000000000000000000000000000BF309B
:100670008316031385004030831285008501000036
:100680000000000000000000000000000000023038
:10069000831203139F041724831203131F080239C4
:1006A0000319532B4C2B831203131E08AC00831623
:1006B0001E088312AB00080083120317AD002D083B
:1006C0000313A000A101A423080000308312031328
:1006D000A100A000080083120313A401A5012208B1
:1006E000A0070318A50A2508A1070318A40A2308D0
:1006F000A1070318A40A8312031324080800831215
:100700000317AE00831203172E08AE030038031937
:100710008F2B831203130310A10CA00C822B080053
:1007200083120313A401A5012208A002031CA50A39
:100730002508A102031CA40A2308A102031CA40A81
:1007400083120313240808000030F90083120317F2
:10075000AF0003300313A300E830A2009023031D71
:10076000B52B83120317AF0AAE2B831203172F0882
:100770000319BC2B1C30F900831203172F08B0009B
:100780006B23003083120317AF0000300313A30064
:100790006430A2009023031DD12B83120317AF0AEC
:1007A000CA2B6B23831203172F08B0072F08031DD2
:1007B000E02B3008031DE02B783084008001E92B0A
:1007C00078308400831203172F08003EF62775083F
:1007D0008000003083120317AF000A300313A20019
:1007E0009023031DF72B83120317AF0AF02B6B2303
:1007F000831203172F08031D042C3008031D042C3B
:100800007730840080010D2C773084008312031729
:100810002F08003EF627750880007630840083128A
:1008200003132008003EF6277508800008008B1788
:1008300008008B138B1B192C0800652300308312D2
:100840000313C700831203134708F03E03183B2C21
:100850000310C60DC50DA00DA10D9023003803197E
:10086000332C6B23372C013083120313C6048312FD
:100870000313C70A222C080083120317B1003108A2
:080880008A156E208A110800A0
:0C0FD400031908000310F30CFF3EEA2F85
:100FE000031908000310F30DFF3EF02F83120317BF
:0E0FF0008D0083160C1483120C08F500080007
:101000000030831603138600E33087000030031797
:1010100089000030FB00F9000430FA000030831230
:101020000313A700A600AF00A800A900AA00003083
:10103000AE00AD000030B000B2000030B600B50028
:10104000FC308F0018308E00013090000130831684
:101050008C00C0308B000800003083120313900016
:10106000FC308F0020308E0701309000FD0A04080C
:10107000FF00E3308705FF30831686007B08763E4D
:1010800084000008FC0079087A050319492880309B
:10109000FC047C08FF3A8312031386000608A0397B
:1010A000A03AFE000030831686007A08831287007B
:1010B0000310FA0DFB0A7B08FD3E031C6228FB01AE
:1010C0000430FA007F088400831203130C107208A6
:1010D0008A0071088300F00E700E09008312031756
:1010E000B20032080313BE003008031D7B2831080C
:1010F000FF3E031C9128831203133E08F3003908B6
:101100007302031D031C86283E08B90083120313D3
:101110003E08F30038087302031890283E08B80010
:101120009628831203133E08B900B80083120313F4
:1011300030080319A028831203173208C5200800BD
:101140008312031331080319AA28B1033108031DC0
:10115000AA281221831203173208E8200038031945
:10116000B2280800831203133108031DBE282A0881
:10117000B7000030BD00BC00BB00BA0001308312D4
:101180000313B000FF30B100080083120317B3004F
:10119000831203173308E82083120317B4003408BE
:1011A000031DD628FF300313B100E7288312031371
:1011B0003708D0003808D1003908D2003A08D300E7
:1011C0003B08D4003C08D5003D08D600B00108001B
:1011D00083120317B5003508863E031D031CF12852
:1011E0000034831203173508903E0318F8280034A2
:1011F0000134831203178D0075088C0083160317C2
:101200000C158B138B1B012955308D00AA308D00D6
:101210008C14000000008B170C11000000008C18CB
:101220000E290800831203135608031D21295508AF
:10123000031D21295408031D21295308031D2129B9
:101240000800113083120313B30032080317B600ED
:10125000831203173608B603003803193329073001
:101260000313B3072829831203135008F50033082A
:10127000F92083120313B30A5108F5003308F9204B
:1012800083120313B30A5208F5003308F9208312BE
:101290000313B30A5308F5003308F920831203132C
:1012A000B30A5408F5003308F92083120313B30A74
:1012B0005508F5003308F92083120313B30A5608C2
:1012C000F5003308F920831203133208B500B20A7F
:0A12D0001F30B2050130B60008001F
:0C1FD400031908000310F30CFF3EEA2F75
:101FE000031908000310F30DFF3EF02F83120317AF
:0E1FF0008D0083160C1483120C08F5000800F7
:02400E00E428A4
:02401000FF3E71
:104200003F0006005B004F0066006D007D00070068
:104210007F006F0077007C0058005E00790071001D
:10422000FF00FF00FF00FF00FF00FF00FF00FF0096
:00000001FF
